:040000000C94460016
:100004000C9400000C9400000C9400000C9400006C
:100014000C9400000C9400000C9400000C9400005C
:100024000C9400000C9400000C9400000C9400004C
:100034000C9400000C9400000C9400000C9400003C
:100044000C9400000C9400000C9400000C9400002C
:100054000C9400000C9400000C9400000C9400001C
:100064000C9400000C9400000C9400000C9400000C
:100074000C9400000C9400000C9400000C940000FC
:100084000C9400000C940000F894EE27ECBBF1E013
:10009400F5BFE5BFE0936C008DE0A2E0BB27ED93D4
:1000A4008A95E9F780E090E1A0E0B1E0ED93019753
:1000B400E9F78BBFEFEFEDBFE0E1EEBFC0E0D5E0C5
:1000C4000C946400E1E0E0936500E3E0E0936400F5
:1000D400EFEFE4BBE0916500A3E0EA27E09365005D
:1000E400EEEF10D0EDEF0ED0EBEF0CD0E7EF0AD02F
:1000F400EFEE08D0EFED06D0EFEB04D0EFE702D03F
:10010400E9CFFFCFE5BBA8EEB3E000C0109639F00D
:10011400A89580ED97E00197F1F71197C9F7089535
:00000001FF
