:080000000C944F000C94000069
:100008000C9400000C9400000C9400000C94000068
:100018000C9400000C9400000C9400000C94000058
:100028000C9400000C9400000C9400000C94000048
:100038000C9400000C9400000C9400000C94000038
:100048000C9400000C9400000C9400000C94000028
:100058000C9400000C9400000C9400000C94000018
:100068000C9400000C9400000C9400000C94000008
:100078000C9400000C9400000C9400000C940000F8
:100088000C9400001027E80364000A000100001027
:10009800000110000100F894EE27ECBBF1E0F5BF79
:1000A800E5BFE0936C008DE0A2E0BB27ED938A9555
:1000B800E9F780E090E1A0E0B1E0ED930197E9F77E
:1000C8008BBFEFEFEDBFE0E1EEBFC0E0D5E00C94F1
:1000D8008200E0E0EAB9EBB9EEE0E0939500E0E0F9
:1000E800E0939000E7E6E9B9E8E0EAB908951A93E1
:1000F8001A2F5D9BFECF1CB919910895E1E0E0939A
:100108006500E3E0E0936400E4DFA1E3F0DFE09161
:100118006500A3E0EA27E0936500E0916500F0E060
:10012800A8EEB3E010D0DF0121D0EFCFFFCFF195DB
:10013800E195F0400895FA9FF02DEB9FF00DEA9FAE
:10014800E02DF10D089504D0F6DF0EF4F0DF0895E8
:10015800E894F7FF02C0EBDF6894B7FF06C0B195DB
:10016800A195B04000F8039400FA0895109639F06C
:10017800A89580ED97E00197F1F71197C9F70895D1
:00000001FF
