:040000000C946100FB
:100004000C94AC000C9400000C9400000C940000C0
:100014000C9400000C9400000C9400000C9400005C
:100024000C9400000C9400000C9400000C9400004C
:100034000C9400000C9400000C9400000C949C00A0
:100044000C9400000C9400000C9400000C9400002C
:100054000C9400000C9400000C9400000C9400001C
:100064000C9400000C9400000C9400000C9400000C
:100074000C9400000C9400000C9400000C940000FC
:100084000C9400000C9400001027E80364000A009C
:10009400010000100001100001004F626A656374E2
:1000A40020697320256420636D2066617220667266
:1000B4006F6D2073656E736F722E0D0A0000F894D5
:1000C400EE27ECBBF1E0F5BFE5BFE0936C008DE0FB
:1000D400A2E0BB27ED938A95E9F780E090E1A0E0E8
:1000E400B1E0ED930197E9F78BBFEFEFEDBFE0E1EE
:1000F400EEBFC0E0D5E00C94F8001A931A2F5D9B74
:10010400FECF1CB919910895E0E0EAB9EBB9E6E035
:10011400E0939500E0E0E0939000E7E6E9B9E8E1D8
:10012400EAB90895E1E0E9BFE3E0E0936A00E0E8BA
:10013400EFBF0895AA93BA93EA93FA93EFB7EA93B9
:10014400A0E0B5E0DDD1E991EFBFF991E991B99172
:10015400A99118950A921A92FA926A937A938A93B9
:100164009A93AA93BA93EA93FA93EFB7EA93E09136
:100174000205F09103053097A9F4E0E0E09300054F
:10018400E0930105E1E0E7BFE2E0E3BFECE8E2BFB2
:10019400E2E0E0936A00E1E0F0E0E0930205F0932E
:1001A400030516C0EEE9F0E0FA93EA93E091000546
:1001B400F091010566277727E4D184E065D126967E
:1001C400E3E0E0936A00E0E0E0930205E0930305D6
:1001D400E991EFBFF991E991B991A9919991899127
:1001E40079916991F990199009901895E3E0E09359
:1001F4006400E1E0E0936500E2E0E1BBE0E0E2BB43
:1002040083DF90DFE0916500A3E0EA27E0936500D7
:10021400E2E0E2BB8BE18A95F1F7E0E0E2BBA8EC17
:10022400B0E0B4D1EFCFFFCF90D18D013C81A32FAB
:1002340064DFD80165D190D125960895BA93AA9325
:10024400269781D110E0AC85BD85E0E0F0E0ED9328
:10025400FC93EA89FB893196EA8BFB8B3197E49115
:100264002E2FE03009F409C1E12FE03031F42532BA
:1002740011F411E001C04AD1FFC0E130A1F42532EC
:1002840011F444D1F8C012E040E000E02D3211F442
:1002940001E0F2C02B3211F44BE2EEC0203211F433
:1002A40040E2EAC002C0E23039F450E013E0203307
:1002B40011F40068E1C003C0E33009F0DDC020336D
:1002C40010F02A3308F007C0AAE05A9F502DE22FFD
:1002D400E0535E0FD1C0E22FE33639F41ED1E88932
:1002E400F989A481AA931FD1C6C0E33729F415D193
:1002F40020D1EDD01E2F07C0E03749F40ED119D11B
:10030400F2D01E2F086002600F7730E038C0E43668
:1003140011F0E93611F4046002C0E53731F4ECE879
:10032400F0E0EE83FF8315E00CC0E83511F40860BB
:1003340003C0E83709F09FC0E6E9F0E0EE83FF83ED
:1003440014E002FF15C0E9D0A889B9891496ED918B
:10035400FD91EA87FB87AB85AA2322F406D1EA87BD
:10036400FB874DE2403011F01F5F01C00B7F07C0D7
:10037400D4D0A889B9891496FCD0EA87FB8700FDFC
:1003840010C0151770F407FF08C002FF04C00B7FEC
:10039400242F115001C020E301C020E2B7D05150F6
:1003A400F0CF312F01FF16C0303099F003FF06C0A3
:1003B400EE81FF812591EE83FF8305C0AE81BF816D
:1003C4002D91AE83BF83A2D0503009F051503150EB
:1003D400EBCF48C020E3EE81FF81CFD0E887F987D7
:1003E400EE81FF813296EE83FF83E885F985AA8545
:1003F400BB85AE17BF0750F02F5FA885B985EA8586
:10040400FB85EA1BFB0BEA87FB87EFCF2A3328F037
:1004140003FF02C0295F01C0295D04FD19C0213317
:1004240020F4A885B985119709F409C0531710F071
:1004340000FF01C011C020E207FF0AC020E30061F1
:1004440002FF06C00B7F4A936ED0503009F0515022
:100454005DD0503009F051503150A885B9851297BC
:1004640008F0B8CF00FF07C0503029F05150E0E247
:10047400EA9359D0F9CF10E0ECCEAC85BD85ED916F
:10048400FD9168D064960895FF92F82E26971A93EA
:100494000A93DE01149665D08D01E0E0EC83ED83D0
:1004A400EE83EF83DE0118965CD0ED91FD91FA9313
:1004B400EA931A930A93E6E1F1E0FA93EA93DE01F0
:1004C4001896BCDE198108812896FF900895BA9386
:1004D400AA93A991B991EE27FF276D91662311F094
:1004E4003196FBCF0895BA93AA93AA27BB27E99123
:1004F400F9910590002011F01196FBCFFD010895AC
:10050400ED91FD913196FE93EE9308952A93AD8576
:10051400BE85EF85F88909950895E889F9893497A6
:10052400E88BF98B0895AD85BE85EF85F88909952B
:100534000895A889B9891496ED91FD91EE83FF83FE
:10054400AE81BF8108955A934A933A932A931A939A
:100554000A9308955D814C813B812A811981088128
:1005640008950024AF0DB01D0895F195E195F04074
:100574000895ED91FC91119708950590F491E02D63
:1005840008957A936A93FA93EA930895109639F04A
:10059400A89580ED97E00197F1F71197C9F70895B1
:00000001FF
