:080000000C9459000C9400005F
:100008000C9400000C9400000C9400000C94000068
:100018000C9400000C9400000C9400000C94000058
:100028000C9400000C9400000C9400000C94000048
:100038000C9400000C9400000C9400000C94000038
:100048000C9400000C9400000C9400000C94000028
:100058000C9400000C9400000C9400000C94000018
:100068000C9400000C9400000C9400000C94000008
:100078000C9400000C9400000C9400000C940000F8
:100088000C9400001027E80364000A000100001027
:1000980000011000010053656E736F722056616C89
:1000A8007565203A2025750D0A00F894EE27ECBBFB
:1000B800F1E0F5BFE5BFE0936C008DE0A2E0BB275F
:1000C800ED938A95E9F780E090E1A0E0B1E0ED9347
:1000D8000197E9F78BBFEFEFEDBFE0E1EEBFC0E0BE
:1000E800D5E00C94A4001A931A2F5D9BFECF1CB97F
:1000F80019910895E0E0EAB9EBB9E6E0E0939500DC
:10010800E0E0E0939000E7E6E9B9E8E1EAB90895AC
:10011800E0E0E0936100E6B1E760E6B93E9A359A1F
:10012800379A369A08951A930A9304B11127E5B1BC
:10013800FE2FE0E00E0F1F1FF80109911991089595
:10014800E1E0E0936500E3E0E0936400D3DFE0DF03
:10015800E0916500A3E0EA27E0936500E4DF8F0102
:10016800EEE9F0E0FA93EA93F8016627772701D2DF
:1001780084E043D12696F80166277727A0E8B8E3FC
:1001880081E090E0DDD1EC59FF4FDF01F7D1E0CFFE
:10019800FFCF8ED18D013C81A32FA5DFD801ED9132
:1001A800FD913196FE93EE938AD125960895BA93E0
:1001B800AA9326977BD110E0AC85BD85E0E0F0E0FE
:1001C800ED93FC93EA89FB893196EA8BFB8B319797
:1001D800E4912E2FE03009F409C1E12FE03031F429
:1001E800253211F411E001C044D1FFC0E130A1F47F
:1001F800253211F43ED1F8C012E040E000E02D3283
:1002080011F401E0F2C02B3211F44BE2EEC02032BF
:1002180011F440E2EAC002C0E23039F450E013E0E1
:10022800203311F40068E1C003C0E33009F0DDC0F9
:10023800203310F02A3308F007C0AAE05A9F502D47
:10024800E22FE0535E0FD1C0E22FE33639F418D124
:10025800E889F989A481AA9319D1C6C0E33729F49A
:100268000FD11AD1EDD01E2F07C0E03749F408D1BD
:1002780013D1F2D01E2F086002600F7730E038C02B
:10028800E43611F0E93611F4046002C0E53731F4C0
:10029800ECE8F0E0EE83FF8315E00CC0E83511F4DC
:1002A800086003C0E83709F09FC0E6E9F0E0EE8394
:1002B800FF8314E002FF15C0E3D0A889B98914961A
:1002C800ED91FD91EA87FB87AB85AA2322F400D143
:1002D800EA87FB874DE2403011F01F5F01C00B7FBA
:1002E80007C0CED0A889B98914963BD1EA87FB8785
:1002F80000FD10C0151770F407FF08C002FF04C006
:100308000B7F242F115001C020E301C020E2B1D09F
:100318005150F0CF312F01FF16C0303099F003FF54
:1003280006C0EE81FF812591EE83FF8305C0AE8173
:10033800BF812D91AE83BF839CD0503009F05150BE
:100348003150EBCF48C020E3EE81FF810ED1E88722
:10035800F987EE81FF813296EE83FF83E885F98580
:10036800AA85BB85AE17BF0750F02F5FA885B98552
:10037800EA85FB85EA1BFB0BEA87FB87EFCF2A336D
:1003880028F003FF02C0295F01C0295D04FD19C0E0
:10039800213320F4A885B985119709F409C05317AA
:1003A80010F000FF01C011C020E207FF0AC020E3DF
:1003B800006102FF06C00B7F4A9368D0503009F0F5
:1003C800515057D0503009F051503150A885B98557
:1003D800129708F0B8CF00FF07C0503029F05150ED
:1003E800E0E2EA9353D0F9CF10E0ECCEAC85BD85BE
:1003F800ED91FD9162D064960895FF92F82E2697AC
:100408001A930A93DE0114965FD08D01E0E0EC8325
:10041800ED83EE83EF83DE01189656D0ED91FD91C2
:10042800FA93EA931A930A93EDECF0E0FA93EA93BD
:10043800DE011896BCDE198108812896FF90089580
:10044800BA93AA93A991B991EE27FF276D916623D4
:1004580011F03196FBCF0895BA93AA93AA27BB2728
:10046800E991F9910590002011F01196FBCFFD015B
:1004780008952A93AD85BE85EF85F8890995089575
:10048800E889F9893497E88BF98B0895AD85BE859D
:10049800EF85F88909950895A889B9891496ED9189
:1004A800FD91EE83FF83AE81BF8108955A934A93ED
:1004B8003A932A931A930A9308955D814C813B815C
:1004C8002A811981088108950024AF0DB01D08956F
:1004D800F195E195F0400895F09560957095E19556
:1004E800FF4F6F4F7F4F0895B09580959095A195D8
:1004F800BF4F8F4F9F4F08953F934F935F930024B3
:100508001124A00130E2AA0FBB1F881F991F001CED
:10051800111C441F551F0E1A1F0A460B570B28F4AF
:100528000E0E1F1E461F571F01C0A1603A9559F7AE
:10053800FD01BC01D001CA015F914F913F9108951F
:1005480004D0DADF0EF4C8DF0895E89477FF02C01C
:10055800C3DF689497FF04C0C7DF00F8039400FA6C
:100568000895ED91FC91119708950590F491E02D6F
:1005780008957A936A93FA93EA930895109639F056
:10058800A89580ED97E00197F1F71197C9F70895BD
:00000001FF
